:10068B0049442050617373776F72640020202020DF
:10069B00202020202020202020007665726966799A
:1006AB00696E67002E002020202020202020202093
:1006BB00202020202020202000766572696679207A
:1006CB007375636365737300202020002020202046
:1006DB0020202020202020202020005759433A534F
:1006EB004747206F662043554742004944203A2034
:1006FB003130313132343131313000202020202063
:10070B0020202020202020202020200050617373E7
:10071B00776F7264204572726F7221002020202047
:10072B00202020202020202020202000506C6561DC
:10073B0073652077616974005265736574696E67C0
:0B074B000054727920616761696E0044
:100003001208BD7BFF7A06798B7D017F01120834CC
:10001300750800750901E4F50DF50CF50BF50AF506
:1000230014F513F512F51112040E8F10E51060F795
:10003300D3940A5061E509940AE50894005047E512
:100043001075F00A84AFF0750E008F0FAF0DAE0C74
:10005300AD0BAC0AE47B0AFAF9F812062B8F0D8E6E
:100063000C8D0B8C0AE4FCFDE50D250FF50DE50C5D
:10007300350EF50CED350BF50BEC350AF50A0509D4
:10008300E50970020508E50914FD751901AB0FAA0E
:100093000E7F02120875E510640B60030202F47B05
:1000A300FF7A0679977D017F021208347FF47E017F
:1000B3001208A87BFF7A0679A57D017F0212083416
:1000C3007FF47E011208A87BFF7A0679AF7D0A7F51
:1000D300021208347FF47E011208A87BFF7A0679A6
:1000E300AF7D0B7F021208347FF47E011208A87BD8
:1000F300FF7A0679AF7D0C7F021208347FF47E010C
:100103001208A87BFF7A0679AF7D0D7F02120834AF
:100113007FF47E011208A87BFF7A0679AF7D0E7FFC
:10012300021208347FF47E011208A87BFF7A067955
:10013300AF7D0F7F021208347FF47E011208A87B83
:10014300FF7A0679AF7D107F021208347FC47E09DF
:100153001208A87F967E507D467C3CAB0DAA0CA965
:100163000BA80AC312067A7BFF70607A0679B17D09
:10017300017F021208347BFF7A0679C47D017F0276
:100183001208347FC47E091208A87BFF7A0679D34C
:100193007D0E7F011208347BFF7A0679D77D017FBC
:1001A300021208347BFF7A0679D77D017F0112089A
:1001B300347BFF7A0679E67D017F011208347BFFE9
:1001C3007A0679F67D017F020202DF7A0779067DDE
:1001D300017F021208347BFF7A0779177D017F02C2
:1001E3001208347FAC7E0D1208A87BFF7A077927AB
:1001F3007D017F011208347BFF7A0779277D017F18
:10020300021208347BFF7A0779377D017F011208D8
:10021300347FDC7E051208A87BFF7A0779437D01D2
:100223007F021208347FF47E011208A87BFF7A064E
:1002330079AF7D0A7F021208347FF47E011208A889
:100243007BFF7A0679AF7D0B7F021208347FF47E41
:10025300011208A87BFF7A0679AF7D0C7F02120892
:10026300347FF47E011208A87BFF7A0679AF7D0DF7
:100273007F021208347FF47E011208A87BFF7A06FE
:1002830079AF7D0E7F021208347FF47E011208A835
:100293007BFF7A0679AF7D0F7F021208347FF47EED
:1002A300011208A87BFF7A0679AF7D107F0212083E
:1002B300347FC47E091208A87BFF7A0779277D0162
:1002C3007F011208347BFF7A0779067D017F0212D2
:1002D30008347BFF7A07794C7D017F01120834E4EF
:1002E300F50EF50FF508750901F50DF50CF50BF590
:1002F3000AE510640C600302002A7BFF7A07792762
:100303007D017F011208347BFF7A0779277D017F06
:10031300021208347FF47E011208A87BFF7A077962
:10032300377D017F011208347FDC7E051208A87B2C
:10033300FF7A0779437D017F021208347FF47E013F
:100343001208A87BFF7A0679AF7D0A7F0212083470
:100353007FF47E011208A87BFF7A0679AF7D0B7FBD
:10036300021208347FF47E011208A87BFF7A067913
:10037300AF7D0C7F021208347FF47E011208A87B44
:10038300FF7A0679AF7D0D7F021208347FF47E0178
:100393001208A87BFF7A0679AF7D0E7F021208341C
:1003A3007FF47E011208A87BFF7A0679AF7D0F7F69
:1003B300021208347FF47E011208A87BFF7A0679C3
:1003C300AF7D107F021208347FC47E091208A87B18
:1003D300FF7A0779277D017F011208347BFF7A06B4
:1003E300798B7D017F011208347BFF7A0779067DC3
:1003F300017F02120834E4F50EF50FF508750901C3
:0B040300F50DF50CF50BF50A02002AC0
:1008A800EF1FAC0670011E4C600A7D027CEFDCFE77
:0408B800DDFC80ECF7
:0108BC002219
:0608D100C2A58F80D2A732
:0808D7007F027EEFDEFEDFFC74
:0108DF0022F6
:0A08EC00C2A61208D1C2A70208D765
:10085700CFCDCFCECCCE1205D67C007D0A1205D6E1
:04086700ED2430FF4D
:0A086B00D2A61208D1C2A70208D7D6
:10089200AE07BE0104ED148006BE0209ED243F44FA
:0608A20080FF1208EC22A9
:1008BD007F381208EC7F0C1208EC7F061208EC7FD3
:0408CD00010208EC30
:0A08F600AC03120892AF0402086B75
:060834008B158A168917DE
:10083A00120892E4FDAB15AA16A9178D82758300DA
:0C084A00120597FF600612086B0D80E994
:01085600227F
:0C0801007F0AEA24FFFDE434FFFC7E00C7
:08080D008E1A8F1B8C1C8D1D3F
:100815007F017E00E4FBEBC3951DE51C6480F87445
:0E0825008098500AAC1AAD1B1205C40B80E877
:0108330022A2
:040875008A178B183B
:10087900120892AA19EAD39400400D120801AC1784
:08088900AD181208571A80EDAA
:010891002244
:10075600120892C3EA64809480400B7F2B12086BC8
:100766008A238B24800E7F2D12086BC3E49BF5240D
:10077600E49AF523AA22EAD39400400D120801ACAC
:0907860023AD241208571A80ED7E
:01078F002247
:040790008A278B2801
:10079400120892AA29EAD3940040297F1012080370
:1007A400AC27AD28CFCDCFCECCCE1205D6EF540F8B
:1007B400FEC3940AEE5004243080022437FF12084A
:0407C4006B1A80D15B
:0107C800220E
:0407C9008A2C8B2DBE
:1007CD00120892AA2EEAD394004028EA24FFFDE4F1
:1007DD0034FFFC7F027E0012080DAC2CAD2DCFCD69
:1007ED00CFCECCCE1205D6EF54012430FF12086BBC
:0307FD001A80D28D
:0108000022D5
:10040E00E4F5157590FFC2932097137F14FE120822
:10041E00A83097FD7F147E001208A875150120964E
:10042E00147F147E001208A83096FD7F147E0012F1
:10043E0008A87515052095147F147E001208A830A3
:10044E0095FD7F147E001208A87515092094147F5F
:10045E00147E001208A83094FD7F147E001208A8A6
:10046E0075150D7590FFC2922097147F147E0012A1
:10047E0008A83097FD7F147E001208A8751502207B
:10048E0096147F147E001208A83096FD7F147E000D
:10049E001208A87515062095147F147E001208A860
:1004AE003095FD7F147E001208A875150A2094144D
:1004BE007F147E001208A83094FD7F147E0012086F
:1004CE00A875150E7590FFC2912097147F147E00AB
:1004DE001208A83097FD7F147E001208A875150328
:1004EE002096147F147E001208A83096FD7F147E8D
:1004FE00001208A87515072095147F147E001208A7
:10050E00A83095FD7F147E001208A875150B209457
:10051E00147F147E001208A83094FD7F147E001202
:10052E0008A875150F7590FFC2902097147F147E42
:10053E00001208A83097FD7F147E001208A87515CA
:10054E00042096147F147E001208A83096FD7F14A6
:10055E007E001208A87515082095147F147E0012CF
:10056E0008A83095FD7F147E001208A875150C2082
:10057E0094147F147E001208A83094FD7F147E0020
:08058E001208A8751510AF1545
:010596002242
:030000000208E013
:0C08E000787FE4F6D8FD75812E0200033D
:10059700BB010CE58229F582E5833AF583E0225019
:1005A70006E92582F8E622BBFE06E92582F8E22263
:0D05B700E58229F582E5833AF583E493227D
:1005C400EF8DF0A4A8F0CF8CF0A428CE8DF0A42E4B
:0205D400FE2205
:1005D600BC000BBE0029EF8DF084FFADF022E4CC09
:1005E600F875F008EF2FFFEE33FEEC33FCEE9DECD2
:1005F600984005FCEE9DFE0FD5F0E9E4CEFD22ED18
:10060600F8F5F0EE8420D21CFEADF075F008EF2F61
:10061600FFED33FD4007985006D5F0F222C398FD52
:050626000FD5F0EA22EF
:10062B00E88FF0A4CC8BF0A42CFCE98EF0A42CFC6E
:10063B008AF0EDA42CFCEA8EF0A4CDA8F08BF0A4EC
:10064B002DCC3825F0FDE98FF0A42CCD35F0FCEB4B
:10065B008EF0A4FEA9F0EB8FF0A4CFC5F02ECD3910
:0F066B00FEE43CFCEAA42DCE35F0FDE43CFC227D
:10067A00EB9FF5F0EA9E42F0E99D42F0E89C45F0D6
:01068A00224D
:00000001FF
