:1000CC002030080000000000000000FF01010101C9
:1000DC00003E2222223E00007F01010101010000AE
:1000EC00003F2525253D0000000000000000000019
:0300FC0000000001
:10008F00E4F538F539F53AE4F538E538253924083B
:10009F00F8E6FD7C00AF3812012D0538E538C39422
:1000AF000840E7053AE53AD3940A40DBE4F53A0510
:0D00BF0039E539D3942840CFE4F53980CAE3
:0A014F00EF1FAC0670011E4C600E9D
:0C015900753B02753CC7D53CFDD53BFA58
:0301650080E8220D
:07016800C2B4C2B6C2B52209
:02010000AD0749
:10010200E4FB74807E00A803088006CEA2E713CE2B
:1001120013D8F8FFEDF582EF558224FF92B4D2B6E0
:0A012200C2B60BBB08DCD2B5C2B5B3
:01012C0022B0
:10012D00AA07AF05120100AF027480A8070880026C
:10013D00C313D8FCF4F5807F017E0012014F75804A
:02014D00FF228F
:03000000020003F8
:0C000300787FE4F6D8FD75813C02004ACD
:10000F0002008FE493A3F8E493A34003F68001F278
:10001F0008DFF48029E493A3F85407240CC8C333F2
:10002F00C4540F4420C8834004F456800146F6DFC1
:10003F00E4800B01020408102040809000CCE47E85
:10004F00019360BCA3FF543F30E509541FFEE493B6
:10005F00A360010ECF54C025E060A840B8E493A37D
:10006F00FAE493A3F8E493A3C8C582C8CAC583CAA8
:10007F00F0A3C8C582C8CAC583CADFE9DEE780BE60
:0100FF000000
:00000001FF
