:0C0111000A083F065B4F556D7D077F6FAD
:0F008F0012009E0D0F12009E0D0F12009E0D0FFE
:10009E00EF14B4080050549000B375F003A4C58358
:1000AE0025F0C583730200CB0200CF0200D30200FD
:1000BE00D70200DB0200E30200EB0200F3D2A480C1
:1000CE000ED2A48012D2A48016D2A4801AC2A4D2B8
:1000DE00A3D2A28016C2A4D2A3C2A2800EC2A4C270
:1000EE00A3D2A28006C2A4C2A3C2A274082DF8E6AF
:0300FE00F5802268
:100101007D017C007F0112008F0D0F12008F80FE98
:03000000020003F8
:0C000300787FE4F6D8FD75811102004AF8
:10000F00020101E493A3F8E493A34003F68001F205
:10001F0008DFF48029E493A3F85407240CC8C333F2
:10002F00C4540F4420C8834004F456800146F6DFC1
:10003F00E4800B0102040810204080900111E47E3F
:10004F00019360BCA3FF543F30E509541FFEE493B6
:10005F00A360010ECF54C025E060A840B8E493A37D
:10006F00FAE493A3F8E493A3C8C582C8CAC583CAA8
:10007F00F0A3C8C582C8CAC583CADFE9DEE780BE60
:01011D0000E1
:00000001FF
