:1009AA0020200020202D20202D20200020203A2049
:0509BA00203A2020009E
:1006260012050DE518FB3395E0FA750C027D017F86
:1006360001120947E519FB3395E0FA750C027D04B2
:100646007F01120947E51AFB3395E0FA750C027D26
:10065600077F01120947E51BFB3395E0FA750C028B
:100666007D017F02120947E51CFB3395E0FA750C04
:10067600027D047F02120947E51DFB3395E0FA75FA
:090686000C027D077F0202094706
:10000E00E524B4020B0521E52175F0068485F02167
:10001E00E524640360030200E874182521F806D372
:10002E00E518648094E34003E4F518D3E519648081
:10003E00948C4003751901E51964016023E5196478
:10004E0003601DE51964056017E51964076011E585
:10005E00196408600BE519640A6005E519B40C0B08
:10006E00D3E51A6480949F404D8048E5196404607E
:10007E0011E5196406600BE51964096005E519B40C
:10008E000B0BD3E51A6480949E402B8026E519B4A1
:10009E000224E51875F004120457AFF0EF700BD37D
:1000AE00E51A6480949D400E8009D3E51A6480940D
:1000BE009C4003751A01D3E51B648094974003E4BA
:1000CE00F51BD3E51C648094BB4003E4F51CD3E51B
:1000DE001D648094BB4003E4F51DE52464046003B5
:1000EE000201E374182521F816C3E5186480948084
:1000FE005003751863C3E519648094815003751914
:10010E000CE51964016023E5196403601DE51964AB
:10011E00056017E51964076011E5196408600BE5C1
:10012E0019640A6005E519B40C17C3E51A648094C6
:10013E00815003751A1FD3E51A6480949F40728014
:10014E006DE51964046011E5196406600BE5196428
:10015E00096005E519B40B17C3E51A648094815044
:10016E0003751A1ED3E51A6480949E4044803FE5C1
:10017E00196402703CE51875F004120457AFF0EFE5
:10018E007017C3E51A648094815003751A1DD3E568
:10019E001A6480949D401A8015C3E51A6480948178
:1001AE005003751A1CD3E51A6480949C4003751A8B
:1001BE0001C3E51B648094805003751B17C3E51CB7
:1001CE00648094805003751C3BC3E51D648094804D
:1001DE005003751D3BE5217014E523B4010F7BFF21
:1001EE007A0979AA7D017F011209068011E518FBB3
:1001FE003395E0FA750C027D017F01120947E52166
:10020E00B40114E523B4010F7BFF7A0979AA7D04AA
:10021E007F011209068011E519FB3395E0FA750C82
:10022E00027D047F01120947E521B40214E523B4CF
:10023E00010F7BFF7A0979AA7D077F0112090680DB
:10024E0011E51AFB3395E0FA750C027D077F01125A
:10025E000947E521B40314E523B4010F7BFF7A09A6
:10026E0079AA7D017F021209068011E51BFB3395E9
:10027E00E0FA750C027D017F02120947E521B404F4
:10028E0014E523B4010F7BFF7A0979AA7D047F025E
:10029E001209068011E51CFB3395E0FA750C027D00
:1002AE00047F02120947E521B40512E523B4010DBE
:1002BE007BFF7A0979AA7D077F02020906E51DFBFD
:0F02CE003395E0FA750C027D077F021209472273
:10074C001209BF12000312097D7BFF7A0979AD7D76
:10075C00017F011209067BFF7A0979B67D017F02C0
:10076C001209061202DD12068F8F24E524B401163D
:10077C00E5227007752201F521800BE522B40106F4
:10078C00E4F5221202DDE5221460080470D812068A
:08079C002680D312000E80CE6E
:03000B00020829BF
:09082900C0E0C0D075D000C0078A
:10083200758A18758CFC0520E5207002051FC3948B
:10084200F4E51F94014012751F00752000E5237026
:09085200047F0180027F008F2366
:07085B00D007D0D0D0E0323D
:0609D300C2A58F80D2A72F
:0809D9007F027EEFDEFEDFFC71
:0109E10022F3
:0A09E200C2A61209D3C2A70209D968
:10092900CFCDCFCECCCE1204B87C007D0A1204B84C
:04093900ED2430FF7A
:0A093D00D2A61209D3C2A70209D9FD
:10099400AE07BE0104ED148006BE0209ED243F44F7
:0609A40080FF1209E222AF
:1009BF007F381209E27F0C1209E27F061209E27FEB
:0409CF00010209E236
:0A09EC00AC03120994AF0402093DA8
:060906008B088A09890A32
:10090C00120994E4FDAB08AA09A90A8D827583002B
:0C091C00120479FF600612093D0D80E90D
:0109280022AC
:0C08D3007F0AEA24FFFDE434FFFC7E00F5
:0808DF008E0D8F0E8C0F8D10A1
:1008E7007F017E00E4FBEBC39510E50F6480F8748D
:0E08F7008098500AAC0DAD0E1204A60B80E8DE
:0109050022CF
:040947008A0A8B0B82
:10094B00120994AA0CEAD39400400D1208D3AC0AF6
:08095B00AD0B1209291A80ED11
:010963002271
:1007EF00120994C3EA64809480400B7F2B12093D59
:1007FF008A168B17800E7F2D12093DC3E49BF517C8
:10080F00E49AF516AA15EAD39400400D1208D3AC5A
:09081F0016AD171209291A80ED2B
:0108280022AD
:040862008A278B282E
:10086600120994AA29EAD3940040297F101208D5C8
:10087600AC27AD28CFCDCFCECCCE1204B8EF540FD7
:10088600FEC3940AEE5004243080022437FF120976
:040896003D1A80D1B6
:01089A00223B
:04089B008A2C8B2DEB
:10089F00120994AA2EEAD394004028EA24FFFDE41B
:1008AF0034FFFC7F027E001208DFAC2CAD2DCFCDC4
:1008BF00CFCECCCE1204B8EF54012430FF12093D35
:0308CF001A80D2BA
:0108D2002203
:0909F6000718130B100C3B370627
:05000300C2B5C2B622E7
:0506F0002DFDEE3CFCB5
:0606F5008C088D09AB0723
:1006FB00D2B5E4FD74017E00A805088005C333CE96
:10070B0033CED8F9FFEBF582EF558224FF92B4D2AA
:10071B00B6C2B60DBD08DDE4FD74017E00A8050868
:10072B008005C333CE33CED8F9FFE5085EFEE5096D
:10073B005F4E24FF92B4D2B6C2B60DBD08DBC2B574
:01074B00228B
:0207A400A907A3
:1007A600E4FDD2B5FB74017E00A803088005C333BF
:1007B600CE33CED8F9FFE9F582EF558224FF92B405
:1007C600C2B6D2B60BBB08DDE4FBD2B6C2B630B4B5
:1007D6000D7401A803088002C333D8FC42050BBB85
:0807E60008E8C2B4C2B5AF057A
:0107EE0022E8
:1002DD00E4FDFC7F8E1206F5E51875F00A12045741
:1002ED00FF3395E0FEEFC4F8540FC868FFEEC45419
:1002FD00F048FEE51875F00A120457ADF0ED339590
:10030D00E0FCEF7F8C1206F0E51975F00A12045728
:10031D00FF3395E0FEEFC4F8540FC868FFEEC454E8
:10032D00F048FEE51975F00A120457ADF0ED33955E
:10033D00E0FCEF7F881206F0E51A75F00A120457FB
:10034D00FF3395E0FEEFC4F8540FC868FFEEC454B8
:10035D00F048FEE51A75F00A120457ADF0ED33952D
:10036D00E0FCEF2DFDEE3CFC7F861206F5E51B75DE
:10037D00F00A120457FF3395E0FEEFC4F8540FC88E
:10038D0068FFEEC454F048FEE51B75F00A120457E1
:10039D00ADF0ED3395E0FCEF2DFDEE3CFC7F8412CE
:1003AD0006F5E51C75F00A120457FF3395E0FEEFD4
:1003BD00C4F8540FC868FFEEC454F048FEE51C7530
:1003CD00F00A120457ADF0ED3395E0FCEF2DFDEE84
:1003DD003CFC7F821206F5E51D75F00A120457FFED
:1003ED003395E0FEEFC4F8540FC868FFEEC454F027
:1003FD0048FEE51D75F00A120457ADF0ED3395E09A
:10040D00FCEF2DFDEE3CFC7F801206F5E51E75F030
:10041D000A120457FF3395E0FEEFC4F8540FC86875
:10042D00FFEEC454F048FEE51E75F00A120457ADF8
:10043D00F0ED3395E0FCEF2DFDEE3CFC7F8A1206CE
:0A044D00F57D807C007F8E0206F52D
:10050D007F8C1207A4EFC4540F75F00AA4FEEF54AC
:10051D000F2EF5187F881207A4EFC4540F75F00A3B
:10052D00A4FEEF540F2EF5197F861207A4EFC454C5
:10053D000F75F00AA4FEEF540F2EF51A7F841207E3
:10054D00A4EFC4540F75F00AA4FEEF540F2EF51B43
:10055D007F821207A4EFC4540F75F00AA4FEEF5466
:10056D000F2EF51C7F801207A4EFC4540F75F00AEF
:10057D00A4FEEF540F2EF51D7F8A1207A4EFC4546D
:0C058D000F75F00AA4FEEF540F2EF51EAF
:01059900223F
:0A096400EF1FAC0670011E4C600E80
:0C096E00750902750AC7D50AFDD509FA03
:03097A0080E822F0
:10068F00E4F50820B1137F14FE12096430B1FD7F29
:10069F00147E0012096475080120B0147F147E00C7
:1006AF0012096430B0FD7F147E00120964750802D0
:1006BF0020B2147F147E0012096430B2FD7F147EC5
:1006CF000012096475080320B3147F147E00120909
:1006DF006430B3FD7F147E00120964750804AF08FF
:0106EF0022E8
:10097D005389F0438901758A66758CFCC28DD28CC2
:07098D00D2A9D2AFC2B922CA
:0300000002059A5C
:0C059A00787FE4F6D8FD75812E0205E1A3
:10045700C2D530F707B2D563F0FF05F030E70CB22D
:10046700D5F4048463F0FF05F080018430D502F4ED
:0204770004225D
:10047900BB010CE58229F582E5833AF583E0225038
:1004890006E92582F8E622BBFE06E92582F8E22282
:0D049900E58229F582E5833AF583E493229C
:1004A600EF8DF0A4A8F0CF8CF0A428CE8DF0A42E6A
:0204B600FE2224
:1004B800BC000BBE0029EF8DF084FFADF022E4CC28
:1004C800F875F008EF2FFFEE33FEEC33FCEE9DECF1
:1004D800984005FCEE9DFE0FD5F0E9E4CEFD22ED37
:1004E800F8F5F0EE8420D21CFEADF075F008EF2F81
:1004F800FFED33FD4007985006D5F0F222C398FD72
:050508000FD5F0EA220E
:1005A60002074CE493A3F8E493A34003F68001F218
:1005B60008DFF48029E493A3F85407240CC8C33356
:1005C600C4540F4420C8834004F456800146F6DF25
:1005D600E4800B01020408102040809009F6E47EB6
:1005E600019360BCA3FF543F30E509541FFEE4931A
:1005F600A360010ECF54C025E060A840B8E493A3E1
:10060600FAE493A3F8E493A3C8C582C8CAC583CA0B
:10061600F0A3C8C582C8CAC583CADFE9DEE780BEC3
:0109FF0000F7
:00000001FF
