:02000300AD0747
:10000500E4FB74807E00A803088006CEA2E713CE29
:1000150013D8F8FFEDF582EF558224FF92B4D2B6DE
:0A002500C2B60BBB08DCD2B5C2B5B1
:01002F0022AE
:10005400AA07AF05120003AF027480A80708800244
:10006400C313D8FCF4F5807F017E001200767580FE
:02007400FF2269
:10003000C2B4C2B6C2B5E4F5087DFF7C00AF0812B9
:1000400000547F1E7E001200760508E508C3940860
:0400500040E780E223
:0A007600EF1FAC0670011E4C600E77
:0C008000750902750AC7D50AFDD509FAFA
:03008C0080E822E7
:0300000002008F6C
:0C008F00787FE4F6D8FD75810A0200308D
:00000001FF
