:10017C00E4FDFC7F0112008F1200F28F17E517606F
:10018C00F77FF47E01120153E517FD7C007F01120D
:04019C00008F80E46C
:0A01A000EF1FAC0670011E4C600E4C
:0C01AA007513027514C7D514FDD513FAA7
:0301B60080E822BC
:0501C600007FE3DFFEF5
:0101CB002211
:10015300AD07AC06E4F515F516ED25E0FFEC33FE2F
:10016300C3E5169FE5159E500FB2951201C60516FD
:09017300E51670E5051580E12296
:1000F200E4F51220B1137F14FE1201A030B1FD7F8E
:10010200147E001201A075120120B0147F147E002B
:100112001201A030B0FD7F147E001201A075120200
:1001220020B2147F147E001201A030B2FD7F147E33
:10013200001201A075120320B3147F147E00120175
:10014200A030B3FD7F147E001201A0751204AF121D
:01015200228A
:0C01B9000A083F065B4F666D7D077F6FF4
:10008F00EF14B4080050549000A475F003A4C58376
:10009F0025F0C583730200BC0200C00200C4020039
:1000AF00C80200CC0200D40200DC0200E4D2A4801B
:1000BF000ED2A48012D2A48016D2A4801AC2A4D2C7
:1000CF00A3D2A28016C2A4D2A3C2A2800EC2A4C27F
:1000DF00A3D2A28006C2A4C2A3C2A274082DF8E6BE
:0300EF00F5802277
:03000000020003F8
:0C000300787FE4F6D8FD75811702004AF2
:10000F0002017CE493A3F8E493A34003F68001F28A
:10001F0008DFF48029E493A3F85407240CC8C333F2
:10002F00C4540F4420C8834004F456800146F6DFC1
:10003F00E4800B01020408102040809001B9E47E97
:10004F00019360BCA3FF543F30E509541FFEE493B6
:10005F00A360010ECF54C025E060A840B8E493A37D
:10006F00FAE493A3F8E493A3C8C582C8CAC583CAA8
:10007F00F0A3C8C582C8CAC583CADFE9DEE780BE60
:0101C5000039
:00000001FF
