:10000300E4F50BF50AF509F5087F407E427D0F7C88
:1000130000AB0BAA0AA909A808C3120074501E75E5
:10002300A0FEE4FAF9F8E50B2401F50BEA350AF52D
:100033000AE93509F509E83508F50880CC7F407EE3
:10004300427D0F7C00AB0BAA0AA909A808C31200C2
:1000530074401DE4F5A0FAF9F8E50B2401F50BEA69
:10006300350AF50AE93509F509E83508F50880CDBB
:01007300226A
:0300000002008A71
:0C008A00787FE4F6D8FD75810B020003BE
:10007400EB9FF5F0EA9E42F0E99D42F0EC6480C803
:0600840064809845F022A3
:00000001FF
