:0E02E300436C6F636B3A0020203A20203A00F3
:1000A200E4F51A751C2A751B151202C012027E7B1A
:1000B200FF7A0279E37D017F011202207BFF7A023F
:1000C20079EA7D017F02120220E51BFB7A00750CA2
:1000D200027D017F02120261E51CFB7A00750C02AF
:1000E2007D047F02120261E51AFB7A00750C027D23
:0800F200077F0212026180D1B8
:03000B000200FAF6
:0400FA00C0E0C0D0D2
:1000FE00758A66758CFC0519E51970020518C3948E
:10010E00E8E51894034028051A751800751900E5DE
:10011E001A943C401A751A00051CE51C943C400FBD
:0F012E00751C00051BE51BD394184003751B00BF
:05013D00D0D0D0E0323B
:1002AB00EF1FAC0670011E4C600A7D027CEFDCFE7A
:0402BB00DDFC80ECFA
:0102BF00221C
:10027E005389F0438901758A66758CFCC28DD28CC8
:07028E00D2A9D2AFC2B922D0
:0602D400C2A58F80D2A735
:0802DA007F027EEFDEFEDFFC77
:0102E20022F9
:0A02FD00C2A61202D4C2A70202DA60
:10024300CFCDCFCECCCE12004D7C007D0A12004D17
:04025300ED2430FF67
:0A025700D2A61202D4C2A70202DAF6
:10029500AE07BE0104ED148006BE0209ED243F44FD
:0602A50080FF1202FD22A1
:1002C0007F381202FD7F0C1202FD7F061202FD7FB5
:0402D000010202FD28
:0A030700AC03120295AF0402025786
:060220008B088A09890A1F
:10022600120295E4FDAB08AA09A90A8D827583001E
:0C02360012000EFF60061202570D80E956
:010242002299
:0C01ED007F0AEA24FFFDE434FFFC7E00E2
:0801F9008E0D8F0E8C0F8D108E
:100201007F017E00E4FBEBC39510E50F6480F87479
:0E0211008098500AAC0DAD0E12003B0B80E839
:01021F0022BC
:040261008A0A8B0B6F
:10026500120295AA0CEAD39400400D1201EDAC0AD6
:08027500AD0B1202431A80EDEB
:01027D00225E
:10014200120295C3EA64809480400B7F2B120257FF
:100152008A168B17800E7F2D120257C3E49BF51768
:10016200E49AF516AA15EAD39400400D1201EDACFB
:0901720016AD171202431A80EDCC
:01017B002261
:04017C008A1F8B202B
:10018000120295AA21EAD3940040297F101201EFB0
:10019000AC1FAD20CFCDCFCECCCE12004DEF540F43
:1001A000FEC3940AEE5004243080022437FF12026A
:0401B000571A80D189
:0101B4002228
:0401B5008A248B25E8
:1001B900120295AA26EAD394004028EA24FFFDE416
:1001C90034FFFC7F027E001201F9AC24AD25CFCDAE
:1001D900CFCECCCE12004DEF54012430FF1202577E
:0301E9001A80D2A7
:0101EC0022F0
:030000000202F108
:0C02F100787FE4F6D8FD7581260200A29B
:10000E00BB010CE58229F582E5833AF583E02250A7
:10001E0006E92582F8E622BBFE06E92582F8E222F1
:0D002E00E58229F582E5833AF583E493220B
:10003B00EF8DF0A4A8F0CF8CF0A428CE8DF0A42ED9
:02004B00FE2293
:10004D00BC000BBE0029EF8DF084FFADF022E4CC97
:10005D00F875F008EF2FFFEE33FEEC33FCEE9DEC60
:10006D00984005FCEE9DFE0FD5F0E9E4CEFD22EDA6
:10007D00F8F5F0EE8420D21CFEADF075F008EF2FF0
:10008D00FFED33FD4007985006D5F0F222C398FDE1
:05009D000FD5F0EA227E
:00000001FF
