:0904000050617373776F726400A0
:1002CB001203BD7BFF7A0479007D017F0112033499
:1002DB007522007523011200038F24E52460F7AD0E
:1002EB0023FB7A00750C017F021203750523E523AE
:0602FB0070E4052280E022
:1003A800EF1FAC0670011E4C600A7D027CEFDCFE7C
:0403B800DDFC80ECFC
:0103BC00221E
:0603D100C2A58F80D2A737
:0803D7007F027EEFDEFEDFFC79
:0103DF0022FB
:0A03EC00C2A61203D1C2A70203D774
:10035700CFCDCFCECCCE1201CB7C007D0A1201CB04
:04036700ED2430FF52
:0A036B00D2A61203D1C2A70203D7E5
:10039200AE07BE0104ED148006BE0209ED243F44FF
:0603A20080FF1203EC22B3
:1003BD007F381203EC7F0C1203EC7F061203EC7FE7
:0403CD00010203EC3A
:0A03F600AC03120392AF0402036B84
:060334008B088A09890A0A
:10033A00120392E4FDAB08AA09A90A8D827583000B
:0C034A0012018CFF600612036B0D80E9AD
:010356002284
:0C0301007F0AEA24FFFDE434FFFC7E00CC
:08030D008E0D8F0E8C0F8D1078
:100315007F017E00E4FBEBC39510E50F6480F87464
:0E0325008098500AAC0DAD0E1201B90B80E8A5
:0103330022A7
:040375008A0A8B0B5A
:10037900120392AA0CEAD39400400D120301AC0AAD
:08038900AD0B1203571A80EDC1
:010391002249
:10022000120392C3EA64809480400B7F2B12036B0D
:100230008A168B17800E7F2D12036BC3E49BF51774
:10024000E49AF516AA15EAD39400400D120301AC06
:0902500016AD171203571A80EDD8
:010259002282
:04025A008A1A8B1B56
:10025E00120392AA1CEAD3940040297F10120303C2
:10026E00AC1AAD1BCFCDCFCECCCE1201CBEF540FEF
:10027E00FEC3940AEE5004243080022437FF12038A
:04028E006B1A80D196
:010292002249
:040293008A1F8B2013
:10029700120392AA21EAD394004028EA24FFFDE43E
:1002A70034FFFC7F027E0012030DAC1FAD20CFCDC3
:1002B700CFCECCCE1201CBEF54012430FF12036B0B
:0302C7001A80D2C8
:0102CA002211
:10000300E4F5087590FFC2932097137F14FE120343
:10001300A83097FD7F147E001203A875080120966F
:10002300147F147E001203A83096FD7F147E001205
:1000330003A87508052095147F147E001203A830C9
:1000430095FD7F147E001203A87508092094147F80
:10005300147E001203A83094FD7F147E001203A8BF
:1000630075080D7590FFC2922097147F147E0012BD
:1000730003A83097FD7F147E001203A875080220A1
:1000830096147F147E001203A83096FD7F147E0021
:100093001203A87508062095147F147E001203A886
:1000A3003095FD7F147E001203A875080A2094146E
:1000B3007F147E001203A83094FD7F147E00120388
:1000C300A875080E7590FFC2912097147F147E00C7
:1000D3001203A83097FD7F147E001203A87508034E
:1000E3002096147F147E001203A83096FD7F147EA1
:1000F300001203A87508072095147F147E001203CD
:10010300A83095FD7F147E001203A875080B209478
:10011300147F147E001203A83094FD7F147E001216
:1001230003A875080F7590FFC2902097147F147E63
:10013300001203A83097FD7F147E001203A87508F0
:10014300042096147F147E001203A83096FD7F14BA
:100153007E001203A87508082095147F147E0012F0
:1001630003A83095FD7F147E001203A875080C20A8
:1001730094147F147E001203A83094FD7F147E0034
:080183001203A8750810AF0873
:01018B002251
:030000000203E018
:0C03E000787FE4F6D8FD7581240202CB82
:10018C00BB010CE58229F582E5833AF583E0225028
:10019C0006E92582F8E622BBFE06E92582F8E22272
:0D01AC00E58229F582E5833AF583E493228C
:1001B900EF8DF0A4A8F0CF8CF0A428CE8DF0A42E5A
:0201C900FE2214
:1001CB00BC000BBE0029EF8DF084FFADF022E4CC18
:1001DB00F875F008EF2FFFEE33FEEC33FCEE9DECE1
:1001EB00984005FCEE9DFE0FD5F0E9E4CEFD22ED27
:1001FB00F8F5F0EE8420D21CFEADF075F008EF2F71
:10020B00FFED33FD4007985006D5F0F222C398FD61
:05021B000FD5F0EA22FE
:00000001FF
