:0C017B000A083F065B4F666D7D077F6F32
:10016600EF1FAC0670011E4C600A7D027CEFDCFEC0
:04017600DDFC80EC40
:01017A002262
:10008F00EF14B4080050549000A475F003A4C58376
:10009F0025F0C583730200BC0200C00200C4020039
:1000AF00C80200CC0200D40200DC0200E4D2A4801B
:1000BF000ED2A48012D2A48016D2A4801AC2A4D2C7
:1000CF00A3D2A28016C2A4D2A3C2A2800EC2A4C27F
:1000DF00A3D2A28006C2A4C2A3C2A274082DF8E6BE
:0D00EF00F5807F017E00120166E4F580229D
:0300FC00E4F51216
:1000FF00E4F516F515F514F513E512B40905E4F555
:10010F001280020512E47FD07E07FDFCAB16AA1504
:10011F00A914A813C312015050D6E512FD3395E070
:10012F00FC7F0812008FE4FAF9F8E5162401F516A2
:10013F00EA3515F515E93514F514E83513F513807F
:01014F00C4EB
:03000000020003F8
:0C000300787FE4F6D8FD75811602004AF3
:10015000EB9FF5F0EA9E42F0E99D42F0EC6480C826
:0601600064809845F022C6
:10000F000200FCE493A3F8E493A34003F68001F20B
:10001F0008DFF48029E493A3F85407240CC8C333F2
:10002F00C4540F4420C8834004F456800146F6DFC1
:10003F00E4800B010204081020408090017BE47ED5
:10004F00019360BCA3FF543F30E509541FFEE493B6
:10005F00A360010ECF54C025E060A840B8E493A37D
:10006F00FAE493A3F8E493A3C8C582C8CAC583CAA8
:10007F00F0A3C8C582C8CAC583CADFE9DEE780BE60
:010187000077
:00000001FF
