:040062007F147E0089
:10006600EF4E600F7D027CC6DCFEDDFCEF1F70F0FC
:030076001E80EDFC
:010079002264
:100003007BFFE4F58020B02212006230B0FD1200C5
:10001300620BC3EB648094884002E4FB7401A80381
:10002300088002C333D8FCF4F5A020B1D8120062D3
:1000330030B1FD120062EB70047B078008BBFF0444
:10004300E4FB80011BC3EB648094884002E4FB74EF
:0F00530001A803088002C333D8FCF4F5A080A6EF
:0300000002007A81
:0C007A00787FE4F6D8FD758107020003D2
:00000001FF
