:1000C300E4F50BF50A75A0FE1200E812000E8F0A84
:1000D300E50A60F7B401F4050BE50BC3940240EBAA
:0500E300E4F50B80E6CE
:03000B0002006F81
:0B006F00C0E0C0D075D000C000C0078A
:10007A00758A66758CFC0509E50970020508C39442
:10008A00F4E50894014029750800750900E50B702C
:10009A000DAFA07801EF08800123D8FDF5A0E50B8C
:1000AA00B4010DAFA07801EF08800103D8FDF5A0D7
:0900BA00D007D000D0D0D0E03214
:1000E8005389F0438901758A66758CFCC28DD28C60
:0700F800D2A9D2AFC2B92268
:10000E00E4F50C20B1137F14FE1200FF30B1FD7F1A
:10001E00147E001200FF750C0120B0147F147E00B8
:10002E001200FF30B0FD7F147E001200FF750C022F
:10003E0020B2147F147E001200FF30B2FD7F147EBA
:10004E00001200FF750C0320B3147F147E00120003
:10005E00FF30B3FD7F147E001200FF750C04AF0C51
:01006E00226F
:1000FF00EF1FAC0670011E4C600A7D027CEFDCFE28
:04010F00DDFC80ECA7
:0101130022C9
:03000000020114E6
:0C011400787FE4F6D8FD75810C0200C372
:00000001FF
